:020000040800F2
:10000000180500209D01000825210008DD140008C6
:10001000232100088D0E0008C12200080000000006
:10002000000000000000000000000000F5210008B2
:100030008F0E00080000000027210008F7210008AB
:10004000B7010008B7010008B7010008B7010008B0
:10005000B7010008B7010008B7010008B7010008A0
:10006000B7010008B7010008B7010008B701000890
:10007000B7010008B7010008B7010008B701000880
:10008000B7010008B7010008B7010008B701000870
:10009000B7010008B7010008B7010008B701000860
:1000A000B7010008B7010008B7010008B701000850
:1000B000B7010008B7010008B7010008B701000840
:1000C000B7010008B7010008B7010008B701000830
:1000D000B70100080D220008B7010008B7010008A9
:1000E000B7010008B7010008B7010008B701000810
:1000F000B7010008B7010008B7010008B701000800
:10010000B7010008B7010008B7010008B7010008EF
:10011000B7010008B7010008B7010008B7010008DF
:10012000B7010008B7010008B7010008B7010008CF
:10013000B70100080000000000000000B70100083F
:10014000B7010008B7010008B7010008B7010008AF
:10015000B7010008B7010008B7010008B70100089F
:10016000B7010008B7010008B7010008B70100088F
:10017000B7010008B70100080000000000000000FF
:10018000B7010008B7010008DFF80CD000F03EFB13
:1001900000480047552D00081805002006488047F4
:1001A00006480047FEE7FEE7FEE7FEE7FEE7FEE75C
:1001B000FEE7FEE7FEE7FEE7FD21000889010008F3
:1001C0002DE9F05F0546002092469B46884606468C
:1001D000814640241BE0284641464746224600F01F
:1001E000A5F953465A46C01A914110D311461846F4
:1001F000224600F08CF92D1A67EB01084F46224683
:100200000120002100F083F917EB00094E41201E68
:10021000A4F10104DFDC484631462A464346BDE8E6
:10022000F09F40EA01039B0703D009E008C9121FB1
:1002300008C0042AFAD203E011F8013B00F8013BA0
:10024000521EF9D27047D2B201E000F8012B491ECC
:10025000FBD270470022F6E710B513460A46044663
:100260001946FFF7F0FF204610BDCAB2401E10F835
:10027000011F8A4202D00029F9D10020704730B511
:1002800005460020034600E05B1C934205D2EC5C6F
:10029000C85C201A01D1002CF6D130BD2DE9FE4FEB
:1002A000804681EA0300C00F0C46009021F0004117
:1002B00023F00045B8EB0200A94105D24046214693
:1002C00090461C460B46024623F00040104347D0A0
:1002D000270DC7F30A00C3F30A510290401A019098
:1002E00040286BDAC3F3130040F4801B0098924659
:1002F00020B10023D2EB030A63EB0B0B01985946A4
:10030000C0F14002504600F002F906460D46504644
:100310005946019A00F01AF910EB080061410024D7
:1003200087EA115284EAE7731A4340D0009A62B315
:10033000019A012A4FEA075215DC001B61EB02010A
:100340004FF0004202EA0752CDE90042001C41F59D
:10035000801132462B4600F068F903B0BDE8F08FFB
:1003600040462146F9E7001B61EB0201001C41F504
:10037000801300185B412018A2F5001747EB03011A
:1003800040EAD570B6196D4111E06D084FEA3606A6
:1003900045EAC0754FEA0752001B61EB0201001CE1
:1003A00041F5801149084FEA3000001951413246A9
:1003B0002B4603B0BDE8F04F00F028B900980122A9
:1003C00040000023D0EB020263EBE073009821466B
:1003D0004FEAE074B8EB000061EB0401E9E783F059
:1003E00000435BE781F0004158E72DE9F04D81EAD9
:1003F000030404F0004B21F0004514464FF0000ABE
:1004000023F0004150EA050220D054EA01021DD039
:10041000C5F30A570246C5F31303C1F31300C1F332
:100420000A5640F4801543F48013A7EB0608101B0E
:10043000D64608F2FD3873EB050002D308F1010837
:1004400001E092185B41B8F1000F03DA0020014689
:10045000BDE8F08D00204FF48011064684460EE082
:10046000171B73EB050705D3121B63EB050306434C
:100470004CEA010C49084FEA300092185B4150EAFF
:100480000107EDD152EA030012D082EA040083EAA8
:100490000501084305D0101BAB4106D20122002301
:1004A00006E000224FF0004302E06FF0010253101B
:1004B0001AEB06004CEB085110EB0A0041EB0B0164
:1004C000BDE8F04D00F0A2B80EB540F23341029104
:1004D0000021CDE900110A460B4600F0A6F803B052
:1004E00000BD30B50B46014600202022012409E062
:1004F00021FA02F59D4205D303FA02F5491B04FADD
:1005000002F52844151EA2F10102F1DC30BD202ABB
:1005100004DB203A00FA02F1002070479140C2F15A
:10052000200320FA03F3194390407047202A04DB8C
:10053000203A21FA02F00021704721FA02F3D0405C
:10054000C2F120029140084319467047202A06DB79
:10055000CB17203A41FA02F043EAE07306E041FA91
:1005600002F3D040C2F1200291400843194670477F
:100570000FB4002300B589B00CA900910B996FF05E
:100580000042CB601E4B06931E4B07930423CDE91C
:1005900001321D4A089202466B46002000F0E2F943
:1005A00009B05DF814FB70B586B006464FF0FF3019
:1005B0000091CDE90101002015460C460490324619
:1005C000694604A8FFF7D4FF02460498211825B114
:1005D00008B1084600E020462860049800280DD0A5
:1005E000002A02DD0098884208D0081B0094CDE95B
:1005F00001043246694604A8FFF7BAFF06B070BD91
:100600009D0B0008BB0B00083108000810B5141E34
:1006100073F1000408DA401C41F1000192185B41BB
:100620001A4301D120F0010010BD2DE9F04D924692
:100630009B4611B1B1FA81F202E0B0FA80F22032A9
:100640009046FFF764FF04460F4640EA0A0041EA7D
:100650000B0153465A46084313D0114653EA010092
:1006600019D0C8F140025046FFF760FF05460E461C
:10067000504659464246FFF74AFF084305D001203D
:1006800004E020463946BDE8F08D0020054346EAE7
:10069000E0762C4337430A986305E40AA0EB080090
:1006A0000022FD0A44EA47540A3002D500200146E0
:1006B000E9E7010510196941DDE9084500196941BB
:1006C000BDE8F04DA2E72DE9FE4F81EA030404F0F6
:1006D000004421F0004100944FF0000B23F0004350
:1006E00050EA01045ED052EA03045BD0C3F30A541B
:1006F000C1F30A552C44A4F2F3340194A0FB025434
:10070000C1F3130141F48011C3F3130343F48013C5
:1007100001FB024400FB034E840A970A44EA815419
:1007200047EA8357A4FB076802958D0A05FB0785F6
:100730004FEA932C04FB0C542705029D4FEA065800
:1007400047EA1637B5EB08056EEB070C870E920EDD
:1007500047EA811742EA8312A7FB0201B6EB0B01BD
:1007600064EB00042B0D43EA0C335E1844EB1C5081
:10077000DA465146E7FB0201C5F313044FEA0B3397
:1007800043EA14534FEA0432019C43EA0603A4F1FE
:100790000C040294009CCDE900B4FFF746FF03B0BF
:1007A000BDE8F08F00200146F9E7C1F30A52C1F31A
:1007B000130140F2FF3341F480119A4202DA002023
:1007C0000146704740F233439A42A2F2334202DCC0
:1007D0005242FFF7ABBEFFF79ABE000030B5041ED1
:1007E00071F1000404DB4FF00044404264EB01016E
:1007F000141E73F1000405DB1C464FF00043524207
:1008000063EB0403994208BF904230BD064C074D8C
:1008100006E0E06840F0010394E8070098471034D0
:10082000AC42F6D3FFF7B4FC84330008A4330008CD
:10083000C0B24FF4F05100F0D1B900002DE9FF4FE4
:10084000087883B09946FF2805D0491C2D2804D08C
:100850000024002008E000200BE00124F9E700EB71
:10086000800003EB4000491C0B78FF2BF7D104B14B
:10087000404200230293147819461D462D2C01D0C6
:100880002B2C04D1521C2D2C13D000240294AA46E8
:100890001478FF2C0FD00A25A3FB057801FB0581F6
:1008A0004FF0000C03FB0C11521CE3194AEB010141
:1008B000EEE70124EAE7814453EA010002D019F58A
:1008C000C87F06DA03980021C0E9001107B0BDE82F
:1008D000F08F0025AE4E2F46DFF8B882184600F0A4
:1008E00091F9CDE90001B9F1000002DAC9F1000483
:1008F00000E004460023A74A1AEB030B42EB045A1C
:1009000012E0E00707D02A46334638464146FFF753
:10091000DAFE074688462A46334610461946FFF750
:10092000D2FE05460E466410002CEAD1DDE9000136
:10093000B9F1000F5A46534606DAFFF756FD3A461C
:100940004346FFF752FD05E0FFF7BDFE3A4643463A
:10095000FFF7B9FE029A0AB181F00041039AC2E999
:100960000001B3E72DE9FF4F1F468DB0D7E90146DF
:100970004FF0FF382E2045464FF000090B90B96923
:100980006D1C0E988847396A824688470028F6D140
:10099000BAF1FF3F0AD024F4D064002E11DDBAF181
:1009A0002B0F08D0BAF12D0F0BD102E0404611B049
:1009B0008DE744F48064B9696D1C0E9888478246BF
:1009C000761E6946600501D52D2000E02B208DF8AC
:1009D000000001F1010B0DF1200809E0B9696D1C5F
:1009E0000E98884782460F9844F40074761E05607E
:1009F000002E02DDBAF1300FF0D00B998A453ED1BE
:100A000044F0800406E00F99681CA9F1010944F440
:100A100000740860B9696D1C761E0E98884782467E
:100A20003028F0D02BE00B998A4505D1200603D45D
:100A300044F08004761E18E0504601F05FFD08B3D4
:100A40000DF11301761E44F400748B4508D2AAF10F
:100A500030000BF8010B200607D5A9F1010003E0D7
:100A6000200602D409F101008146A00502D50F99A4
:100A7000681C0860B9696D1C0E9888478246002E74
:100A8000D1DC53E0002E51DDBAF1650F02D0BAF18E
:100A9000450F4BD1A00549D5B9696D1C24F44074AC
:100AA000761E0E9888478246002E0CDD2B2804D037
:100AB000BAF12D0F07D144F48074B9696D1C0E98FA
:100AC00088478246761EE00501D52D2100E02B21C6
:100AD00008F8011BCDF82C8021E00DF12901761ECC
:100AE00044F4007488450CD2AAF1300010F0FF00E5
:100AF00088F8000002D10B99884509D908F101084E
:100B000006E0E00501D5244801E042F20F7081467D
:100B1000B9696D1C0E98884782460F980560002EB3
:100B200004DD504601F0EAFC0028D6D1F9690E98A0
:100B30008847FF208BF8000088F80000002006900E
:100B400007904B466A4608A906A8FFF777FEA0055E
:100B500002D46FF001002AE714F0240F0AD0E00756
:100B600014D1DDE906123868031D3B600068C0E956
:100B700000120BE0DDE9060100F050F80146E00745
:100B800004D13868021D3A600068016028460EE70B
:100B9000000014400000F03FF1D8FFFF426842B16E
:100BA000016811F8013B23B1521EC0E9001218463A
:100BB00070470121C160881E704742685AB1C368FE
:100BC000016843B983688B4205D0491E521CC0E9B5
:100BD0000012002070474FF0FF3070477F2801D986
:100BE000002208E0064A02EB5002C007127800D14A
:100BF000120902F00F0201209040084070470000E7
:100C0000443300080EB540F2334202920022CDE98F
:100C100000221346FFF709FD03B000BD01F00043B9
:100C200030B421F0004150EA010206D00A0DA2F5CD
:100C30006072C1F31301002A02DC30BC002070474F
:100C4000440F44EAC104C100E01830BC00EBC250BC
:100C5000AFF300800029A8BF7047401C490008BFBF
:100C600020F00100704710B4B0FA80FC00FA0CF0DC
:100C700050EA010404BF10BC704749B1CCF1200414
:100C800021FA04F411FA0CF118BF012121430843A1
:100C9000A3EB0C01CB1D4FEA00614FEA102042BFCD
:100CA000002010BC704700EBC35010440029A4BFC3
:100CB00010BC7047401C490008BF20F0010010BC68
:100CC0007047000030B593B030216846FFF7C2FA94
:100CD00014210CA8FFF7BEFA1E480025016841F058
:100CE00080510160006800F0805011901A4801683E
:100CF00041F4804101600068022400F480401190BA
:100D000001200090000401908001CDE906400820F8
:100D100008904FF4A870CDE9090404200B906846B0
:100D200000F012FA08B172B6FEE70CA90F2081E8B4
:100D300031004FF4A0500F904FF4805010900521D7
:100D40000CA800F037F9002801D072B6FEE713B006
:100D500030BD000040380240007000402DE9F043F3
:100D60008FB081461C2106A8FFF774FA1821684647
:100D7000FFF770FA4048016841F010010160006817
:100D800000F010000D903C481438016841F001015A
:100D900001600068022500F001000D904FF400761C
:100DA0000024CDE90065DFF8D480CDE9025469461E
:100DB000404601F02DF86F02CDE9007569464046C6
:100DC00001F026F807223146404601F0BCF8072220
:100DD0003946404601F0B7F8CDE906940C20089456
:100DE000CDE909400B940C94254C06A9204601F04E
:100DF000E1F824480068C0F30221C1F1070004288B
:100E000000D904200A1D072A01D2002100E0C91ED2
:100E100001228240521E02F0020088401A4900015D
:100E200081F80004184920202139C1F80001206907
:100E300020F490402061606920F02A00606104F194
:100E40000C0000BF50E8001F41F0200140E80012F4
:100E5000002AF7D104F10C0050E8001F41F0100106
:100E600040E80012002AF7D1E06840F40050E0604A
:100E70000FB0BDE8F083000044380240000002409B
:100E8000001001400CED00E025E000E0FEE77047B7
:100E900001488068704700002000002002488168F7
:100EA0000278114481607047200000200B4810B583
:100EB000016841F400710160016841F480610160E2
:100EC000016841F480710160032000F061F80F2097
:100ED00000F006F800F024F8002010BD003C0240AD
:100EE00070B50D4D04464FF47A712878B1FBF0F0DF
:100EF0000A490968B1FBF0F000F0DCFA48B9102C9F
:100F000007D200222146501E00F022F800206C601B
:100F100070BD012070BD00002000002000000020F6
:100F20000A4808B5016841F480410160006800F496
:100F3000804000900548001F016841F08051016029
:100F4000006800F08050009008BD00004438024066
:100F5000F0B40E4B1B680C46C3F30223C3F1070524
:100F6000042D00D90425191D072901D2002300E012
:100F7000DB1E012606FA05F1491E214099409E40DC
:100F8000761E16403143F0BC01F0ACB90CED00E028
:100F9000064900F0070208684FF6FF03184040EAD0
:100FA0000220034A10430860704700000CED00E087
:100FB0000000FA052DE9F0470E46050065D0DFF880
:100FC0001481D8F80000F7B200F00700B04207D251
:100FD00088F80070D8F8000000F00700B04254D143
:100FE00028683D4C810712D5400703D5206840F49E
:100FF000E05020602878000703D5206840F4604066
:1010000020602068A96820F0F0000843206028785C
:10101000C0072DD0304968680839012812D002284D
:1010200013D0032811D00968890700292DDA216817
:1010300021F0030101432160FFF72AFF814641F2BD
:10104000883A0EE009688903EFE709688901ECE74F
:10105000FFF71EFFA0EB0901514502D90320BDE8AF
:10106000F0872068696800F00C00B0EB810FEFD1C9
:10107000D8F80010404601F00701B14207D90770C7
:10108000006800F00700B04201D00120E7E72878AF
:10109000400705D52068E96820F4E0500843206047
:1010A0002878000706D52068296920F4604040EAC6
:1010B000C100206000F018F82168084AC1F303114C
:1010C000515CC8400649086006480068FFF708FF01
:1010D0000020C4E7003C0240083802402C330008DE
:1010E0000000002024000020154810B5006810F012
:1010F0000C02144813D04110042A0FD0082A0ED134
:101100000F4C241F2268236802F03F025B0207D5C0
:101110002068C0F38810A0FB010106E0084610BD5E
:101120002168C1F38811A1FB00010023FFF748F8F3
:101130002168C1F30141491C4900B0FBF1F010BD29
:10114000083802400024F4002DE9F84F04006ED066
:101150002078DFF84C93C007A9F104054AD009F1C3
:1011600004000168C1F38101012908D00068C0F3BF
:10117000810002280AD1D9F80000400206D528686B
:10118000800337D560680028E1D033E06068B0F5AF
:10119000803F10D0B0F5A02F286810D020F4803008
:1011A0002860286820F4802028606068A8B1FFF7D4
:1011B0006FFE06460DE0286840F48030F4E740F406
:1011C00080202860F7E700BFFFF762FE801B6428DD
:1011D00073D828688003F7D50CE0FFF759FE064660
:1011E00005E000BFFFF754FE801B6428F0D8286894
:1011F0008003F7D42078DFF8AC8280074FF0000A34
:101200003ED5A748001D016811F00C0F08D00068FA
:10121000C0F3810002280BD1D9F80000400207D4A6
:101220002868800716D5E068012800D112E033E174
:10123000E068B8B10120C8F80000FFF729FE0646B3
:1012400005E000BFFFF724FE801B0228C0D82868F5
:101250008007F7D52868216920F0F80040EAC1002E
:1012600028600DE0C8F800A0FFF712FE064604E073
:10127000FFF70EFE801B02281FD828688007F7D4CE
:101280002078000722D5864F87486169703771B191
:1012900001210160FFF7FCFD064604E0FFF7F8FDC1
:1012A000801B022809D838688007F7D50EE0C0F8FF
:1012B00000A0FFF7EDFD064605E082E0FFF7E8FD40
:1012C000801B02287DD838688007F7D42078400733
:1012D00068D5DFF8CCB100270BF13C0BDBF8000040
:1012E000C0000BD4DBF8001041F08051CBF80010A7
:1012F000DBF80000012700F0805000906B4E306852
:10130000C00510D4306840F480703060FFF7C0FD35
:10131000009005E0FFF7BCFD0099401A022850D864
:101320003068C005F6D55E4EA0686C3601280FD037
:101330000528306810D020F001003060306820F0BF
:1013400004003060A068B8B1FFF7A2FD00900FE084
:10135000306840F00100F4E740F004003060F7E747
:10136000FFF796FD0099411A41F28830814266D814
:1013700030688007F4D50EE0FFF78AFD009007E0A3
:10138000FFF786FD0099411A41F28830814256D814
:1013900030688007F4D42FB1DBF8001021F08051C1
:1013A000CBF80010A069C8B33D49091D0968C1F315
:1013B000810102294AD00228504607D0C8F86000AF
:1013C00000E03CE0FFF764FD04463BE04746C8F818
:1013D0006000FFF75DFD064605E000BFFFF758FD22
:1013E000801B02282BD828688001F7D4D4E9070194
:1013F0000843A16A2E4A490802EB0141626A41EAA8
:101400008211084394F82C1040EA0161C9F80010D9
:1014100001203866FFF73CFD044606E03EE000BFD1
:10142000FFF736FD001B022809D828688001F7D590
:1014300034E000BFFFF72CFD001B022802D9032077
:10144000BDE8F88F28688001F4D427E00128F7D0A0
:10145000D9F80000E26900F4800191421CD1226AAF
:1014600000F03F01914217D147F6C071626A014016
:10147000B1EB821F10D1A26A4FF0FF3300F440316C
:1014800003EB5202B1EB024F06D194F82C1000F09E
:101490007060B0EB016F01D00120D1E70020CFE7F1
:1014A0000438024000004742800E4742007000406E
:1014B0000000FFFF10B5401EB0F1807F01D3012076
:1014C00010BD4FF0E02460610F21601700F00AFFAB
:1014D0000020A06107202061002010BDFEE7002051
:1014E000401C80B22828FBD37047000070B5264C02
:1014F000012815D002281ED003282ED0042837D06A
:10150000052829D1E6146504A5610122910220462F
:1015100000F02DFD2004A061FFF7E1FFA66118E0B7
:101520004FF400763504A56101221102204600F037
:101530001EFD6810EFE74FF40005A5610122402170
:10154000204600F014FD6810A061FFF7C8FF80205E
:10155000A061FFF7C4FFA56170BD4FF400463504DC
:10156000A56101229103204600F001FD6808D2E741
:101570004FF400563504A56101221103204600F006
:10158000F6FC6810C7E700000004024070B586B0A2
:1015900018216846FEF75EFE022000F02DFC0124B3
:1015A00002264AF680208DE85100002569460A4847
:1015B000CDE9034500F02CFC042000F01DFC600385
:1015C000CDE90004CDE9026569460495034800F0C1
:1015D0001FFC06B070BD000000040240000802407D
:1015E0002DE9F041204C012815D002281AD00328FB
:1015F0002BD0042830D0052825D1E6146504A56138
:10160000012297023946204600F0B1FCA761FFF79E
:1016100066FFA66114E04FF400763504A56101224F
:101620001702EFE74FF40005A56101224021204693
:1016300000F09DFC4020A061FFF751FF8020A061D9
:10164000FFF74DFFA561BDE8F0814FF4004635047A
:10165000A56101229703D5E74FF400563504A56133
:1016600001221703CEE70000000402402DE9F041FB
:101670000025584E07462C4601290AD0022928D0B9
:10168000032947D0042964D005297DD00120BDE875
:10169000F08100224FF48071304600F068FC4FF476
:1016A00000710A04B261FFF71AFFB1616006040E0F
:1016B0003069C00501D5641CE4B2FFF710FF6D1C52
:1016C000EDB2082DEED34FF00100FFB1FFF70EFF92
:1016D0001EE000224021304600F049FC4FF400019A
:1016E000B161FFF7FCFE8020B0616006040E306936
:1016F000400601D5641CE4B2FFF7F1FE6D1CEDB2AB
:10170000082DEDD34FF00200002FDFD1FFF768FF67
:101710002046BCE700224FF48041304600F027FC11
:101720004FF400410A04B261FFF7D9FEB1616006CF
:10173000040E3069400401D5641CE4B2FFF7CFFE0B
:101740006D1CEDB2082DEED34FF00300002FBDD17C
:10175000DCE700224FF48051304600F008FC4FF4E3
:1017600000510A04B261FFF7BAFEB1616006040ECF
:101770003069C00401D5641CE4B2FFF7B0FE6D1CF3
:10178000EDB2082DEED300E004E04FF00400002F8E
:101790009CD1BBE700224FF48061304600F0E7FBAC
:1017A0004FF400610A04B261FFF799FEB16160066F
:1017B000040E3069400501D5641CE4B2FFF78FFECA
:1017C0006D1CEDB2082DEED34FF00500002F9CD11B
:1017D0009CE70000000402402DE9F041524C054610
:1017E000012919D0022936D0032953D0042970D0F9
:1017F00005292ED1012296023146204600F0B7FB82
:10180000E1140B04A36100225FEAC13705FA02F07C
:1018100000067CD5A6617BE00122160231462046F7
:1018200000F0A5FB71000B04A36100225FEAC13741
:1018300005FA02F0000601D5A66100E0A761A161EA
:10184000FFF74DFEA361FFF74AFE521CD2B2082AF1
:10185000EED3BDE8F08101224021204600F087FB55
:101860004FF40002A26100215FEA620305FA01F071
:10187000000602D54020A06100E0A3618020A061A5
:10188000FFF72DFEA261FFF72AFE491CC9B2082905
:10189000ECD3DEE7012296033146204600F067FBD9
:1018A00071000B04A36100225FEAC13705FA02F060
:1018B000000601D5A66100E0A761A161FFF70FFE58
:1018C000A361FFF70CFE521CD2B2082AEED3C0E788
:1018D000FFE7012216033146204600F048FB710065
:1018E0000B04A3610022CF0305FA02F0000602D523
:1018F000A66101E00BE0A761A161FFF7F0FDA36124
:10190000FFF7EDFD521CD2B2082AEDD3A1E7A76183
:10191000A161FFF7E4FDA361FFF7E1FD521CD2B224
:10192000082AFFF473AF94E70004024070B5314C0D
:10193000012818D0022827D0032839D0042848D0FD
:10194000052834D1012295022946204600F00FFBDC
:10195000A561E014A061FFF7C2FD2004A061FFF7BC
:10196000BEFD600422E0012215022946204600F057
:10197000FEFAA5616800A061FFF7B1FD2804A0612F
:10198000FFF7ADFD680411E001224021204600F080
:10199000EEFA4020A0618020A061FFF7A0FD4FF487
:1019A0008000A061FFF79BFD4FF40000A06170BDB7
:1019B000012295032946204600F0D9FAA561680066
:1019C000A061FFF78CFD2804A061FFF788FD680483
:1019D000ECE7012215032946204600F0C8FAA5616C
:1019E0006800A061FFF77BFD2804A061FFF777FD89
:1019F0006804DBE70004024070B5284C01281AD0C7
:101A0000022823D0032832D004283BD0052844D113
:101A1000012295022946204600F0A9FAE1140804A3
:101A2000A0614010A061FFF75AFDA161A561BDE86A
:101A30007040FFF754BD012215022946204600F0F0
:101A400096FA69000804A0614010EBE701224021EA
:101A5000204600F08CFA4FF40000A0614010A06115
:101A6000FFF73DFD8020A0614020A061DFE701225B
:101A700095032946204600F07AFA69000804A0611F
:101A80004008CFE7012215032946204600F06FFAEF
:101A900069000804A0614010C4E770BD0004024062
:101AA00070B500244B4D012808D0022821D003280E
:101AB0003CD0042855D005286ED02FE04FF4807616
:101AC00000223146284600F052FAAE61FFF707FDCA
:101AD0007000A861FFF703FD05E0641CA4B20A2CA6
:101AE00001D9012018E02869C005F6D44FF0007034
:101AF0006CE000224021284600F039FA4020A8611D
:101B0000FFF7EDFC8020A861FFF7E9FC08E0641C0A
:101B1000A4B20A2C04D90220FFF76EFF012070BD89
:101B200028694006F3D44FF400004FE04FF480469C
:101B300000223146284600F01AFAAE61FFF7CFFCCA
:101B40007000A861FFF7CBFC05E0641CA4B20A2C6E
:101B500001D90320E0E728694004F6D44FF00040A3
:101B600034E04FF4805600223146284600F0FFF959
:101B7000AE61FFF7B4FC7000A861FFF7B0FC05E0B0
:101B8000641CA4B20A2C01D90420C5E72869C0044A
:101B9000F6D44FF0005019E04FF480660022314631
:101BA000284600F0E4F9AE61FFF799FC7000A861E7
:101BB000FFF795FC05E0641CA4B20A2C01D90520AE
:101BC000AAE728694005F6D44FF00060A86100201C
:101BD00070BD000000040240F8B50646FFF7D6FCD1
:101BE0002A2433464FF400421C21204601F0B4FA67
:101BF0000A2000F087FA33466A467F21204601F02A
:101C0000A9F9BDF80000A0F54051553901D00120D7
:101C1000F8BD4FF6FF7533462A460821204601F0ED
:101C20009BFA33462A460921204601F095FA3346AD
:101C30002A460A21204601F08FFA33462A460B2114
:101C4000204601F089FA334600220C21204601F09B
:101C500083FA334600220D21204601F07DFA3346F7
:101C600000220E21204601F077FA334600220F2190
:101C7000204601F071FA4FF4806533462A46102160
:101C8000204601F069FA33462A461121204601F028
:101C900063FA33462A461221204601F05DFA3346A4
:101CA0002A461321204601F057FA33460022142118
:101CB000204601F051FA334600221521204601F05A
:101CC0004BFA334600221621204601F045FA3346EE
:101CD00000221721204601F03FFA33460122182145
:101CE000204601F039FA6D1033462A461A21204663
:101CF00001F032FA33464CF20F221B21204601F04C
:101D00002BFA33462A461D21204601F025FA334698
:101D100000221E21204601F01FFA334600221F2117
:101D2000204601F019FA334600222021204601F016
:101D300013FA334600222121204601F00DFA00203B
:101D4000F8BD000070B50D4601002A4C4FF00000B0
:101D50001BD001292AD0022939D0032914D12A20E5
:101D60002B4604F10C02062101F0F4F82A202B4640
:101D700004F10E02072101F0EDF8A089B4F80E106D
:101D8000C0F30B0041EA004070BD2A202B46194ADF
:101D9000002101F0DFF82A202B46A21C012101F0CE
:101DA000D9F820886188C0F30B00EBE72A202B4686
:101DB000221D022101F0CEF82A202B46A21D03216C
:101DC00001F0C8F8A088E188C0F30B00DAE7094AFF
:101DD0002A202B460832042101F0BCF8054A2A20AB
:101DE0002B460A32052101F0B5F820896189C0F33C
:101DF0000B00C7E704010020044908B50A68024344
:101E00000A6009680140009108BD000030380240B6
:101E1000F0B50A680F2692FAA2F2B2FA82F303240E
:101E20008AE001279F4015EA07027DD04D68012D09
:101E300001D0022D1BD18D68876892FAA2FCBCFAF2
:101E40008CFC4FEA4C0C04FA0CFC27EA0C0792FAC3
:101E5000A2FCBCFA8CFC4FEA4C0C05FA0CF52F43A3
:101E60008760CD684768554397432F4347600F69A4
:101E7000D0F80CC092FAA2F5B5FA85F54FEA450EF6
:101E800004FA0EF52CEA050C92FAA2F5B5FA85F5DE
:101E90006D00AF404CEA070CC0F80CC04D68022D35
:101EA00033D192FAA2F5B5FA85F5082D15D2D1F8FD
:101EB00014C0056A92FAA2F7B7FA87F7BF0006FACC
:101EC00007F7BD4392FAA2F7B7FA87F7BF000CFAFB
:101ED00007FC45EA0C05056217E0D1F814E0476AF3
:101EE000150A95FAA5FCBCFA8CFC4FEA8C0C06FA94
:101EF0000CFC95FAA5F5B5FA85F5AD0027EA0C07B7
:101F00000EFA05FE47EA0E0747624D68076892FA27
:101F1000A2FCBCFA8CFC4FEA4C0C04FA0CFE27EA3B
:101F20000E0792FAA2F200E005E0B2FA82F2520045
:101F300095402F4307605B1C0A681546DA407FF422
:101F400070AF0020F0BD30B5436A090A91FAA1F4E0
:101F5000B4FA84F4A5000F24AC4091FAA1F1B1FACF
:101F600081F18900A3438A401343436230BD30B5F9
:101F7000036891FAA1F4B4FA84F465000324AC4038
:101F800091FAA1F1B1FA81F14900A3438A401343C8
:101F9000036030BD10B5044600F0F0F8206000F09A
:101FA000C3F8606000F0CEF8A060606800F0D8F878
:101FB000E06010BD7FB50446C0680D460126C0F341
:101FC0004030C0BBE9686868AA69084329691143C1
:101FD0000843E16849F20C6291430843E060A86855
:101FE000216921F44051014321616869616921F44B
:101FF0004071014361616846FFF7CCFF0F4884429E
:1020000008D00F4884420DD00E4884420AD00E48B2
:10201000844201D1039906E00C48844202D00C4866
:10202000844208D1029931B12B6823B100262046A1
:10203000AA6900F00FF804B0304670BD00100140EE
:10204000004400400048004000140140004C0040A3
:10205000005000402DE9F04106461920A1FB000187
:102060001F46002364243225B2F5004F27D0BB0F52
:10207000BA00FEF7A5F80146B0FBF4F06FF01802C5
:10208000504301EB800005EB0010B0FBF4F000F0D2
:10209000F002B1FBF4F002EB0012B1FBF4F06FF0D0
:1020A0001803584301EB800005EB0010B0FBF4F07F
:1020B00000F00F00104480B2B060BDE8F081FA1962
:1020C0005B41FEF77DF80146B0FBF4F00201B1FB85
:1020D000F4F06FF01803584301EB800005EBC000EB
:1020E000B0FBF4F000F0F80002EB4002B1FBF4F0BA
:1020F000584301EB800005EBC000B0FBF4F000F0AA
:102100000700D7E708B54FF0E0210A690092421CAA
:1021100000D0401C0A69D20300D5401E0028F9D126
:1021200008BDFEE7FEE7704704490968044A01F06C
:10213000F0010909515CC8407047000008380240AE
:102140002C33000804490968044A01F4E05102EB09
:1021500091210978C8407047083802403C33000894
:1021600004490968044A01F4604102EB51310978DD
:10217000C8407047083802403C33000807480068F0
:1021800010F00C01064807D0042904D0082903D117
:10219000082000F009B803487047000008380240E2
:1021A0000024F40000127A0010B5104A0446002002
:1021B000116811F480030E4903D0B3F5800F00D1EC
:1021C0004910082C11D1106800F03F00B1FBF0F06D
:1021D0001168C1F3881148431168012201F44031AC
:1021E00002EB11414900B0FBF1F010BD0438024090
:1021F0000024F4007047FEF751BE00000248016859
:1022000041F470010160704788ED00E0F8B529499C
:1022100008680025C0F34013274A284801270BB35C
:102220004B680478DBB2ECB944887F2C04D2448834
:102230001619641C448033700A2B0DD00D2B0BD063
:1022400010E04388134413F8013C0A2B01D00D2BF6
:1022500005D143885B1E43804388002BF1D143881E
:10226000D55407700B68C3F30013002B0AD00B681A
:102270004B680B680093496800910178002901D1EF
:10228000418879B9F8BD4188114411F8011C0A2927
:1022900005D00D2903D0202901D0092905D1418875
:1022A000491E418041880029EDD14188555407706D
:1022B000F8BD00000010014084000020180000203C
:1022C000FEE700000FB4054B10B503A9044A0298BD
:1022D00000F01CF910BC5DF814FB00003D2C000858
:1022E0002C0000200907090E002804DB00F1E02083
:1022F00080F80014704700F00F0000F1E02080F833
:10230000141D70470000000030B583B0044600F093
:1023100017F89FED090B05468DED000B00222146B5
:102320006846FEF740F9284600F020F89DED000BC6
:1023300003B030BD000000000000000000000000FD
:1023400001480068704700003000002002E008C823
:10235000121F08C1002AFAD170477047002001E01F
:1023600001C1121F002AFBD170470000014908601B
:1023700070470000300000202DE9FF5F82B000218F
:10238000DDE90430020DDDF840B0034318D044F617
:102390001050A2F2FF3242431514119801281FD0A9
:1023A000A5EB0B00401C5FEA000A4FF000064E4F01
:1023B000DFF83891B046504615D5CAF1000413E055
:1023C000119801244AA3012801D16FEA0B01029858
:1023D000119AC0E90031C0E9024206B0BDE8F09FA1
:1023E000CBF10000DFE704460021404A491842EBE8
:1023F0000450CDE9001012E0E00707D032463B461A
:1024000040464946FEF75FF98046894632463B46DC
:1024100010461946FEF757F906460F466410002C81
:10242000EAD1DDE90401DDE90023BAF1000F06DAA3
:10243000FEF749F942464B46FEF745F905E0FDF740
:10244000D4FF42464B46FDF7D0FF04460E4600221D
:10245000284BFEF7C3F903D84FF0FF30014607E0E1
:102460000022254B20463146FDF718FFFEF79DF967
:10247000102409E0002C0ADB0A220023FDF7A0FE4D
:10248000039B30321A55641E50EA0102F2D1641CDB
:10249000039AC4F111031444119A012A03D00122B2
:1024A00008430DD10AE0084304D000204FF0110B7F
:1024B000119072E7A3EB0B056D1E0DE05B4504DD8B
:1024C0004FF0000205F1010504E003DA4FF00002CD
:1024D000A5F10105002AECD002981199C0E902315A
:1024E000C0E9004579E70000000014400000F03F1B
:1024F000300000000000F0430000E03F30380A28C0
:1025000001D2012070470020704700002DE9FF4FE5
:1025100095B09B468946064600250FE2252877D1CF
:1025200000242746F84A0121059400E0044316F8E8
:10253000013F203B01FA03F01042F7D130782A28FE
:1025400011D06FF02F033078A0F13002092A16D88D
:10255000059A44F0020402EB820203EB42021044AB
:10256000761C0590EFE759F8042B0592002A03DA50
:10257000504244F40054059044F00204761C307834
:102580002E2816D116F8010F44F004042A280DD085
:102590006FF02F023078A0F13003092B09D807EB38
:1025A000870302EB4303C718761CF3E759F8047B53
:1025B000761C30786C280FD006DC4C2817D06828A1
:1025C0000DD06A2814D104E0742810D07A280FD1D5
:1025D0000DE044F400140AE044F4801401E044F4F3
:1025E00040147278824202D104F58014761C761C65
:1025F000307866280BD013DC582877D009DC002807
:1026000075D04528F6D04628F4D047281AD19DE148
:1026100018E0632835D0642879D0652812D195E177
:10262000702873D008DC6728F1D069286FD06E2835
:102630000DD06F2806D1B5E073282CD0752875D041
:10264000782874D05A46179990476D1C75E1C4F3E9
:102650000250022809D003280DD0D9F80010042810
:102660000DD00D6009F1040967E1D9F80010EA17EF
:10267000C1E90052F6E7D9F800100D80F2E70D70BD
:10268000F0E719F8041B8DF8001000208DF8010008
:10269000EA46012003E059F804AB4FF0FF30610730
:1026A0004FF0000102D40DE008F101018846B94263
:1026B0000FDA8045F8DB1AF808100029F4D108E099
:1026C00008F1010188468142FADB1AF80810002956
:1026D000F6D105985B46A0EB080721463846179AC5
:1026E00000F094FA284400EB080507E04DE029E1EA
:1026F0000DE01AF8010B5A4617999047B8F10108F6
:10270000F7D25B4621463846179A13E142E00A2287
:102710000092C4F302524FF0000A022A08D059F87E
:1027200004CB032A4FEAEC710AD00DE029E02AE03D
:1027300009F1070121F00702F2E802C1914609E020
:102740000FFA8CFC4FEAEC71042A03D14FFA8CFC8F
:102750004FEAEC71002907DA0A460021DCF1000C8F
:1027600061EB02012D2202E0220504D52B228DF817
:102770000420012203E0E20701D02022F7E790467F
:1027800059E00A2102E010220DE010214FF0000A6A
:1027900000910BE010224FF0000A44F004040827D7
:1027A000009203E008224FF0000A0092C4F30252A4
:1027B000022A05D059F804CB0021032A08D009E0E9
:1027C00009F1070121F00702F2E802C1914605E094
:1027D0001FFA8CFC042A01D10CF0FF0C4FF000080A
:1027E000220728D5702806D0009B83F0100353EAF7
:1027F0000A0305D00EE040228DF80420012208E0F3
:102800005CEA010206D030228DF804208DF8050024
:1028100002229046009B83F0080353EA0A030AD180
:102820005CEA010201D1620705D530228DF804204F
:102830004FF001087F1E582804D034A003900EA842
:1028400002900DE036A0F9E753466046009AFDF786
:10285000B7FC84460398825C0298401E0290027086
:102860005CEA0100F0D1029806A9081A00F1200ADA
:10287000600702D524F4803400E00127574502DDCB
:10288000A7EB0A0000E0002000EB0A010090059889
:102890004144401A0590E00306D45B462146179A4E
:1028A000059800F0B3F90544002706E001A85A4650
:1028B000C05D179990476D1C7F1C4745F6DBE00310
:1028C0000CD55B462146179A059800F09FF9054400
:1028D00004E030205A46179990476D1C0099481E15
:1028E00000900029F5DC08E0029802995A46007829
:1028F000491C0291179990476D1CBAF10001AAF189
:10290000010AF1DC65E100000928010030313233B1
:10291000343536373839616263646566000000001B
:102920003031323334353637383941424344454605
:102930000000000000F058F90544761C30780028AB
:102940007FF4ECAD19B02846BDE8F08F620700D4E3
:10295000062709F1070222F0070CFCE80223E146F2
:1029600003F000485FEA080C02D00FF2702C0DE073
:102970005FEA045C02D50FF2682C07E05FEAC47CD2
:1029800002D00FF2602C01E0AFF2700C4FF0FF3874
:1029900023F00043CDF850C065280CD006DC452854
:1029A00009D046281DD047283DD13DE0662818D0E3
:1029B00067287ED138E00021112F01DB112000E0D3
:1029C000781CCDE9000106A90EA8FFF7D5FCDDE9CA
:1029D0000F010E9A03910021009207F1010A049160
:1029E0004DE04FF000400097CDE9011006A90EA878
:1029F000FFF7C2FCDDE90F0203920E9B1199002242
:102A0000DDF80CA00093049211B9791C00EB010AC7
:102A1000B7EB0A0004D4C0F1FF3007F1010A0490BB
:102A2000AAEB0700019044E0012F00DA0127002102
:102A3000112F01DD112000E03846CDE9000106A983
:102A40000EA8FFF799FCDDE90F010E9A0391002112
:102A500004910092BA4621070CD40399514500DA3B
:102A60008A46BAF1010F05DD009AAAF10101515C15
:102A7000302908D0B84202DA10F1040F06DA012139
:102A8000CDE9011015E0AAF10101E9E7002805DC14
:102A9000049901440491AAEB000102E0411C514554
:102AA00000DD8A460499401A401C01904FF0004016
:102AB0000290200704D40198504501DBCDF8048032
:102AC00000208DF84F0002980DF14F07B0F1004F34
:102AD00025D02B200E9002984FF0020800280CDA27
:102AE000404202902D200E9007E00A210298FDF747
:102AF000F8FC3031029007F8011DB8F10001A8F18F
:102B00000108F2DC02980028EFD1791E0E980870B7
:102B1000307800F0200040F0450007F8020D12A8C0
:102B2000C01B00F107081498007800B1012000EBE9
:102B30000A01019801EBE07105984144401A401EDA
:102B40000590E00306D45B462146179A059800F0ED
:102B50005DF805441498007818B15A4617999047C3
:102B60006D1CE00324D55B462146179A059800F0BA
:102B70004DF805441CE00498002807DBDDE903015B
:102B8000884203DD0098405C179901E017993020D6
:102B90005A469047049805F10105401C049001989D
:102BA000401E019004D12E205A46179990476D1C63
:102BB000BAF10001AAF1010ADDDC05E017F8010B0A
:102BC0005A46179990476D1CB8F10001A8F1010809
:102BD000F4DC5B462146179A0598ABE62D00000011
:102BE0002B000000200000002DE9F04104460025E4
:102BF0001E461746880404D405E039462020B04715
:102C00006D1C641EF9D52846BDE8F0812DE9F04120
:102C1000044600251E469046C80301D5302700E033
:102C20002027880404D505E041463846B0476D1C8E
:102C3000641EF9D52846BDE8F081000003490A6802
:102C40005206FCD5C2B24A60704700000010014035
:102C50002DE9F0412E4E2DED028BA0B030786D465F
:102C60004FF00008002845D072B62A4F3C887F2CD0
:102C700000DB7F24224628492846FDF7D2FA05F8D2
:102C80000480A7F8008086F8008062B60124042240
:102C900022A16846FDF7F3FA88B3072221A168460E
:102CA000FDF7EDFA002825D12C216846FDF7DDFA65
:102CB00000281FD0401CFFF727FBB0EE408AF0EE43
:102CC000608AFEF7E5F8FDF7FFFB9FED181B53EC5C
:102CD000112BFDF78AFB53EC182BFDF783FB41EC1E
:102CE000100B144853EC102B80ED020B047012A053
:102CF000FFF7E8FA20B0BDEC028BBDE8F081FFE7FA
:102D0000FEF7C6F8014610A0FFF7DCFAF2E7000074
:102D1000180000201A0000208400002050494E476F
:102D2000000000005345544241534500000000009C
:102D300000408F400800002053594E4345442C2545
:102D40002E39660D0A000000504F4E472C256C7539
:102D50000D0A0000FEF7AAF8FDF7B4FF4FF4E130CA
:102D6000FDF7FCFF01244FF4FA752046FEF734FF0F
:102D7000002821467DD05EA0FFF7A4FA2846FFF781
:102D8000C1F9641CE4B2062CEFD3604E604C00BF66
:102D9000FFF75EFF01210320FEF7D4FF2060012131
:102DA0000220FEF7CFFF012160600846FEF7CAFF50
:102DB000A06001210020FEF7C5FFE0600221032092
:102DC000FEF7C0FF022120610846FEF7BBFF6061ED
:102DD00002210120FEF7B6FFA06102210020FEF7CC
:102DE000B1FF0321E0610846FEF7ACFF206203213A
:102DF0000220FEF7A7FF606203210120FEF7A2FF79
:102E0000A06203210020FEF79DFFE0620421032061
:102E1000FEF798FF206304210220FEF793FF606312
:102E200004210120FEF78EFFA06304210020FEF79D
:102E300089FFE06305210320FEF784FF206405215C
:102E40000220FEF77FFF606405210120FEF77AFF74
:102E5000A06405210020FEF775FFE064FEF718F876
:102E60003178C9B1FDF730FB9FED2A1B53EC112BD4
:102E700000E00FE0FDF7B9FA96ED021B53EC112BC1
:102E8000FDF70CFA41EC100B24A053EC102BFFF7CC
:102E900019FA05E023A06FE7014629A0FFF712FA0F
:102EA0005FF0000527A054F82510FFF70BFA6D1C02
:102EB000EDB2142DF6D325A0FFF704FA322501E078
:102EC000052D01D9052700E02F463846FFF71AF9EE
:102ED000ED1BFFF7BDFE002DF2D11D494FF400524E
:102EE0004869824300F4005042EA004088614FE79D
:102EF0004C444320256420E5889DE5A78BE58C960E
:102F0000E5A4B1E8B4A55C720A0000000800002046
:102F1000340000200000000000408F40252E39665C
:102F2000000000004C444320256420E5889DE5A76F
:102F30008BE58C96E68890E58A9F5C720A0000001B
:102F4000256C75002C256C75000000000D0A000032
:102F5000000802402DE9F0410F46012145001646C8
:102F600001EB4004012B08D0022B33D0032B65D09A
:102F7000042B7DD0052B7CD05DE00120FEF7D6FC34
:102F8000E8B20121FEF728FC0120FEF789FD0128A7
:102F900070D001213846FEF71FFC0120FEF780FDAE
:102FA0000128F5D00120FEF7C1FCE0B20121FEF7B7
:102FB00013FC0120FEF774FD0128E9D00121084629
:102FC000FEF754FB044601210020FEF74FFB0546A7
:102FD00001202BE00220FEF7A9FCE8B20221FEF757
:102FE000FBFB0220FEF75CFD0128D1D00221384610
:102FF000FEF7F2FB0220FEF753FD0128C8D00220A5
:10300000FEF794FCE0B20221FEF7E6FB0220FEF799
:1030100047FD01282ED002210120FEF727FB0446A0
:1030200002210020FEF722FB05460220FEF7E4FC09
:1030300045EA042030800120BDE8F0810320FEF73E
:1030400075FCE8B20321FEF7C7FB0320FEF728FD5D
:1030500001287ED003213846FEF7BEFB0320FEF791
:103060001FFD012875D00320FEF760FCE0B202E0EE
:1030700015E041E06DE00321FEF7AEFB0320FEF713
:103080000FFD012865D003210120FEF7EFFA044669
:1030900003210020FEF7EAFA05460320C6E70420D4
:1030A000FEF744FCE8B20421FEF796FB0420FEF78D
:1030B000F7FC01284DD004213846FEF78DFB042093
:1030C000FEF7EEFC012844D00420FEF72FFCE0B20E
:1030D0000421FEF781FB0420FEF7E2FC012838D032
:1030E00004210120FEF7C2FA044604210020FEF765
:1030F000BDFA0546042099E70520FEF717FCE8B263
:103100000521FEF769FB0520FEF7CAFC012820D047
:1031100005213846FEF760FB0520FEF7C1FC0128BB
:1031200017D00520FEF702FCE0B20521FEF754FBA4
:103130000520FEF7B5FC01280BD005210120FEF784
:1031400095FA044605210020FEF790FA0546052071
:103150006CE7002070E7000070B50E46724C110A53
:10316000450021706270012B08D0022B2FD0032B59
:1031700059D0042B7ED0052B7DD052E00120FEF7E4
:10318000D5FBE8B20121FEF727FB0120FEF788FC02
:10319000012871D001213046FEF71EFB0120FEF709
:1031A0007FFC0128F5D020780121FEF715FB0120D6
:1031B000FEF776FC0128ECD060780121FEF70CFBCD
:1031C0000120FEF76DFC0128E3D0012027E002205A
:1031D000FEF7ACFBE8B20221FEF7FEFA0220FEF792
:1031E0005FFC012848D002213046FEF7F5FA0220A4
:1031F000FEF756FC01283FD020780221FEF7ECFABA
:103200000220FEF74DFC012836D060780221FEF73F
:10321000E3FA0220FEF744FC01282DD00220FEF73D
:10322000EBFB012070BD0320FEF780FBE8B2032119
:10323000FEF7D2FA0320FEF733FC012872D00321F7
:103240003046FEF7C9FA0320FEF72AFC012869D0B0
:1032500020780321FEF7C0FA0320FEF721FC0128A5
:1032600060D060780321FEF7B7FA0320FEF718FC60
:10327000012802E004E02CE054E053D00320CEE724
:103280000420FEF753FBE8B20421FEF7A5FA042060
:10329000FEF706FC012845D004213046FEF79CFAD3
:1032A0000420FEF7FDFB01283CD020780421FEF726
:1032B00093FA0420FEF7F4FB012833D06078042150
:1032C000FEF78AFA0420FEF7EBFB01282AD004203F
:1032D000A5E70520FEF72AFBE8B20521FEF77CFAF8
:1032E0000520FEF7DDFB01281CD005213046FEF746
:1032F00073FA0520FEF7D4FB012813D020780521AE
:10330000FEF76AFA0520FEF7CBFB01280AD06078A9
:103310000521FEF761FA0520FEF7C2FB012801D066
:1033200005207CE7002070BD1C000020000000008C
:103330000000000001020304060708090000000065
:1033400001020304DDDDDDDDDCBBBBDDDDDDDDDD5C
:10335000DDDDDDDD988888888888888877777777CD
:103360007788888885555556666666666666666699
:103370006668888883333332222222222222222244
:103380002228888DA43300080000002034000000AB
:103390004C230008D833000834000020E404000067
:1033A0005C2300080024F40000000000000000007E
:1033B000000000000000000000000000000000000D
:1033C00000000000010000001000000000000000EC
:0833D0000000000000000000F5
:040000050800018965
:00000001FF
